{
  "address": "0xd57Ec4740FaE036D446E653B83f88a82975EE9bB",
  "abi": [
    {
      "inputs": [
        {
          "internalType": "address",
          "name": "_tokenA",
          "type": "address"
        },
        {
          "internalType": "address",
          "name": "_tokenB",
          "type": "address"
        }
      ],
      "stateMutability": "nonpayable",
      "type": "constructor"
    },
    {
      "anonymous": false,
      "inputs": [
        {
          "indexed": true,
          "internalType": "address",
          "name": "provider",
          "type": "address"
        },
        {
          "indexed": false,
          "internalType": "uint256",
          "name": "amountA",
          "type": "uint256"
        },
        {
          "indexed": false,
          "internalType": "uint256",
          "name": "amountB",
          "type": "uint256"
        }
      ],
      "name": "LiquidityAdded",
      "type": "event"
    },
    {
      "anonymous": false,
      "inputs": [
        {
          "indexed": true,
          "internalType": "address",
          "name": "provider",
          "type": "address"
        },
        {
          "indexed": false,
          "internalType": "uint256",
          "name": "amountA",
          "type": "uint256"
        },
        {
          "indexed": false,
          "internalType": "uint256",
          "name": "amountB",
          "type": "uint256"
        }
      ],
      "name": "LiquidityRemoved",
      "type": "event"
    },
    {
      "anonymous": false,
      "inputs": [
        {
          "indexed": true,
          "internalType": "address",
          "name": "trader",
          "type": "address"
        },
        {
          "indexed": false,
          "internalType": "address",
          "name": "tokenIn",
          "type": "address"
        },
        {
          "indexed": false,
          "internalType": "uint256",
          "name": "amountIn",
          "type": "uint256"
        },
        {
          "indexed": false,
          "internalType": "address",
          "name": "tokenOut",
          "type": "address"
        },
        {
          "indexed": false,
          "internalType": "uint256",
          "name": "amountOut",
          "type": "uint256"
        }
      ],
      "name": "Swap",
      "type": "event"
    },
    {
      "inputs": [
        {
          "internalType": "uint256",
          "name": "amountA",
          "type": "uint256"
        },
        {
          "internalType": "uint256",
          "name": "amountB",
          "type": "uint256"
        }
      ],
      "name": "addLiquidity",
      "outputs": [],
      "stateMutability": "nonpayable",
      "type": "function"
    },
    {
      "inputs": [
        {
          "internalType": "address",
          "name": "_token",
          "type": "address"
        }
      ],
      "name": "getPrice",
      "outputs": [
        {
          "internalType": "uint256",
          "name": "",
          "type": "uint256"
        }
      ],
      "stateMutability": "view",
      "type": "function"
    },
    {
      "inputs": [],
      "name": "liquidityA",
      "outputs": [
        {
          "internalType": "uint256",
          "name": "",
          "type": "uint256"
        }
      ],
      "stateMutability": "view",
      "type": "function"
    },
    {
      "inputs": [],
      "name": "liquidityB",
      "outputs": [
        {
          "internalType": "uint256",
          "name": "",
          "type": "uint256"
        }
      ],
      "stateMutability": "view",
      "type": "function"
    },
    {
      "inputs": [
        {
          "internalType": "uint256",
          "name": "amountA",
          "type": "uint256"
        },
        {
          "internalType": "uint256",
          "name": "amountB",
          "type": "uint256"
        }
      ],
      "name": "removeLiquidity",
      "outputs": [],
      "stateMutability": "nonpayable",
      "type": "function"
    },
    {
      "inputs": [
        {
          "internalType": "uint256",
          "name": "amountAIn",
          "type": "uint256"
        }
      ],
      "name": "swapAforB",
      "outputs": [],
      "stateMutability": "nonpayable",
      "type": "function"
    },
    {
      "inputs": [
        {
          "internalType": "uint256",
          "name": "amountBIn",
          "type": "uint256"
        }
      ],
      "name": "swapBforA",
      "outputs": [],
      "stateMutability": "nonpayable",
      "type": "function"
    }
  ],
  "transactionHash": "0xf5fbd7e0deaa7e0f2c07a5e3d261aa11f02829fa9df2bd4636f47402c193719f",
  "args": [
    "0xf3945912c8F996B67575C4aB937b21802c37BA42",
    "0x81406F687357ebF5df9Dd77DF4d705B2e54856cb"
  ],
  "numDeployments": 1,
  "solcInputHash": "a8313fc83f2b69debbe4852abd718c32",
  "bytecode": "0x608060405234801561001057600080fd5b50604051610b97380380610b9783398101604081905261002f9161007c565b600180546001600160a01b039384166001600160a01b031991821617909155600280549290931691161790556100af565b80516001600160a01b038116811461007757600080fd5b919050565b6000806040838503121561008f57600080fd5b61009883610060565b91506100a660208401610060565b90509250929050565b610ad9806100be6000396000f3fe608060405234801561001057600080fd5b506004361061007d5760003560e01c80638014a7aa1161005b5780638014a7aa146100b95780639cd441da146100ce5780639d7de6b3146100e1578063e4f1f70a146100f457600080fd5b806324731cff1461008257806341976e091461009d57806379629b69146100b0575b600080fd5b61008b60045481565b60405190815260200160405180910390f35b61008b6100ab36600461097d565b610107565b61008b60035481565b6100cc6100c73660046109ad565b6101ca565b005b6100cc6100dc3660046109c6565b6103ab565b6100cc6100ef3660046109c6565b610568565b6100cc6101023660046109ad565b610715565b6001546000906001600160a01b038381169116148061013357506002546001600160a01b038381169116145b6101745760405162461bcd60e51b815260206004820152600d60248201526c24b73b30b634b2103a37b5b2b760991b60448201526064015b60405180910390fd5b6001546001600160a01b03908116908316036101b2576003546004546101a290670de0b6b3a76400006109fe565b6101ac9190610a15565b92915050565b6004546003546101a290670de0b6b3a76400006109fe565b6000811161021a5760405162461bcd60e51b815260206004820181905260248201527f416d6f756e74206d7573742062652067726561746572207468616e207a65726f604482015260640161016b565b600061022b826004546003546108ee565b6002546040516323b872dd60e01b81529192506001600160a01b0316906323b872dd9061026090339030908790600401610a37565b6020604051808303816000875af115801561027f573d6000803e3d6000fd5b505050506040513d601f19601f820116820180604052508101906102a39190610a5b565b5060015460405163a9059cbb60e01b8152336004820152602481018390526001600160a01b039091169063a9059cbb906044016020604051808303816000875af11580156102f5573d6000803e3d6000fd5b505050506040513d601f19601f820116820180604052508101906103199190610a5b565b50816004600082825461032c9190610a7d565b9250508190555080600360008282546103459190610a90565b9091555050600254600154604080516001600160a01b0393841681526020810186905292909116908201526060810182905233907f5380cf97d8f645d3c4896da60c053458dca03a3a31cec642ac80e1ddf0d8d02a906080015b60405180910390a25050565b81158015906103ba5750600081115b6104105760405162461bcd60e51b815260206004820152602160248201527f416d6f756e7473206d7573742062652067726561746572207468616e207a65726044820152606f60f81b606482015260840161016b565b6001546040516323b872dd60e01b81526001600160a01b03909116906323b872dd9061044490339030908790600401610a37565b6020604051808303816000875af1158015610463573d6000803e3d6000fd5b505050506040513d601f19601f820116820180604052508101906104879190610a5b565b506002546040516323b872dd60e01b81526001600160a01b03909116906323b872dd906104bc90339030908690600401610a37565b6020604051808303816000875af11580156104db573d6000803e3d6000fd5b505050506040513d601f19601f820116820180604052508101906104ff9190610a5b565b5081600360008282546105129190610a7d565b92505081905550806004600082825461052b9190610a7d565b9091555050604080518381526020810183905233917fac1d76749e5447b7b16f5ab61447e1bd502f3bb4807af3b28e620d1700a6ee45910161039f565b600354821180159061057c57506004548111155b6105c15760405162461bcd60e51b8152602060048201526016602482015275496e73756666696369656e74206c697175696469747960501b604482015260640161016b565b81600360008282546105d39190610a90565b9250508190555080600460008282546105ec9190610a90565b909155505060015460405163a9059cbb60e01b8152336004820152602481018490526001600160a01b039091169063a9059cbb906044016020604051808303816000875af1158015610642573d6000803e3d6000fd5b505050506040513d601f19601f820116820180604052508101906106669190610a5b565b5060025460405163a9059cbb60e01b8152336004820152602481018390526001600160a01b039091169063a9059cbb906044016020604051808303816000875af11580156106b8573d6000803e3d6000fd5b505050506040513d601f19601f820116820180604052508101906106dc9190610a5b565b50604080518381526020810183905233917f96cd817c6329656790ef8fba7675405193677d39619571282f5e21f3a98cd059910161039f565b600081116107655760405162461bcd60e51b815260206004820181905260248201527f416d6f756e74206d7573742062652067726561746572207468616e207a65726f604482015260640161016b565b6000610776826003546004546108ee565b6001546040516323b872dd60e01b81529192506001600160a01b0316906323b872dd906107ab90339030908790600401610a37565b6020604051808303816000875af11580156107ca573d6000803e3d6000fd5b505050506040513d601f19601f820116820180604052508101906107ee9190610a5b565b5060025460405163a9059cbb60e01b8152336004820152602481018390526001600160a01b039091169063a9059cbb906044016020604051808303816000875af1158015610840573d6000803e3d6000fd5b505050506040513d601f19601f820116820180604052508101906108649190610a5b565b5081600360008282546108779190610a7d565b9250508190555080600460008282546108909190610a90565b9091555050600154600254604080516001600160a01b0393841681526020810186905292909116908201526060810182905233907f5380cf97d8f645d3c4896da60c053458dca03a3a31cec642ac80e1ddf0d8d02a9060800161039f565b600080841180156108ff5750600083115b801561090b5750600082115b6109575760405162461bcd60e51b815260206004820152601960248201527f496e76616c6964207265736572766573206f7220696e70757400000000000000604482015260640161016b565b6109618484610a7d565b61096b83866109fe565b6109759190610a15565b949350505050565b60006020828403121561098f57600080fd5b81356001600160a01b03811681146109a657600080fd5b9392505050565b6000602082840312156109bf57600080fd5b5035919050565b600080604083850312156109d957600080fd5b50508035926020909101359150565b634e487b7160e01b600052601160045260246000fd5b80820281158282048414176101ac576101ac6109e8565b600082610a3257634e487b7160e01b600052601260045260246000fd5b500490565b6001600160a01b039384168152919092166020820152604081019190915260600190565b600060208284031215610a6d57600080fd5b815180151581146109a657600080fd5b808201808211156101ac576101ac6109e8565b818103818111156101ac576101ac6109e856fea2646970667358221220ffd74de3cc958859a63f41d11a5b45534b17aa47d28578cc21eadceb83a8196964736f6c63430008140033",
  "devdoc": {
    "author": "MarcelaWojtasik",
    "kind": "dev",
    "methods": {},
    "version": 1
  },
  "userdoc": {
    "kind": "user",
    "methods": {
      "removeLiquidity(uint256,uint256)": {
        "notice": "Remuevo liquidez de a pares: una cantidad válida de tokens A y otra de tokens B. Le resto a la liquidez los tokens removidos  Emito evento que informa cambio en variable de estado "
      }
    },
    "notice": "A smart contract that implements a decentralized exchange (DEX) for two ERC20 tokens. It also allows changing state variables of the contract and tracking the changes",
    "version": 1
  },
  "storageLayout": {
    "storage": [
      {
        "astId": 940,
        "contract": "contracts/SimpleDex.sol:SimpleDex",
        "label": "owner",
        "offset": 0,
        "slot": "0",
        "type": "t_address"
      },
      {
        "astId": 943,
        "contract": "contracts/SimpleDex.sol:SimpleDex",
        "label": "tokenA",
        "offset": 0,
        "slot": "1",
        "type": "t_contract(IERC20)877"
      },
      {
        "astId": 946,
        "contract": "contracts/SimpleDex.sol:SimpleDex",
        "label": "tokenB",
        "offset": 0,
        "slot": "2",
        "type": "t_contract(IERC20)877"
      },
      {
        "astId": 948,
        "contract": "contracts/SimpleDex.sol:SimpleDex",
        "label": "liquidityA",
        "offset": 0,
        "slot": "3",
        "type": "t_uint256"
      },
      {
        "astId": 950,
        "contract": "contracts/SimpleDex.sol:SimpleDex",
        "label": "liquidityB",
        "offset": 0,
        "slot": "4",
        "type": "t_uint256"
      }
    ],
    "types": {
      "t_address": {
        "encoding": "inplace",
        "label": "address",
        "numberOfBytes": "20"
      },
      "t_contract(IERC20)877": {
        "encoding": "inplace",
        "label": "contract IERC20",
        "numberOfBytes": "20"
      },
      "t_uint256": {
        "encoding": "inplace",
        "label": "uint256",
        "numberOfBytes": "32"
      }
    }
  }
}